:100000000C9434000C9451000C9451000C94510049
:100010000C9451000C9451000C9451000C9451001C
:100020000C9451000C9451000C9451000C9451000C
:100030000C9451000C9451000C9451000C945100FC
:100040000C9451000C9451000C9451000C945100EC
:100050000C9451000C9451000C9451000C945100DC
:100060000C9451000C94510011241FBECFEFD8E026
:10007000DEBFCDBF13E0A0E0B1E0E2E9F1E102C0F4
:1000800005900D92A630B107D9F723E0A6E0B3E0C2
:1000900001C01D92A930B207E1F70E9473050C94CC
:1000A000C7080C940000CF93DF93EC0181E00E941D
:1000B000A401AE01DD0F660B770B23E08AE00E94FE
:1000C000F7018DEF92E0DF91CF910C94EB01CF938C
:1000D000C82F80E00E94E2048C2FCF910C94F8048A
:1000E0000C9469050C942805CF93C82F8CE30E94CB
:1000F000670080E00E9428058C2F0E942805CF9180
:100100000C946905CF93DF9381E20E94740080E034
:100110000E9474008FE70E94740082E20E947400C3
:1001200080E00E94740087E00E9474008CE30E94CB
:10013000670080E40E942805C0E0D4E080E00E94CF
:1001400028052197D9F781E20E94740080E00E947F
:1001500074008FE70E94740082E20E94740080E0C5
:100160000E94740087E00E9474008CE30E94670084
:1001700080E4DF91CF910C9428050E94D6048EEA8A
:100180000E94740085ED0E94740080E80E94740053
:1001900088EA0E9474008FE30E94740083ED0E943D
:1001A000740080E00E94740080E40E9474008DE876
:1001B0000E94740084E10E94740080E20E94740036
:1001C00080E00E94740081EA0E94740088EC0E9422
:1001D00074008AED0E94740082E10E94740081E83C
:1001E0000E9474008FEC0E94740089ED0E947400DC
:1001F00081EF0E9474008BED0E94740080E40E94E5
:10020000740084EA0E94740086EA0E9474008FEAF7
:100210000E9474000C948200CF93DF93C82FD62FD6
:10022000809307036093080381E20E9474008D2F7E
:100230000E9474008FE70E94740082E20E947400A2
:100240008C2F0E94740087E00E9474008CE30E944F
:10025000670080E4DF91CF910C942805883018F472
:1002600067FF0C940C0108955F926F927F928F92BA
:100270009F92AF92BF92CF92DF92EF92FF920F9335
:100280001F93CF93DF93882E7B0127E0281708F474
:10029000812C912C85E0682EF701E90DF11D8081FC
:1002A000811110C0DF91CF911F910F91FF90EF90BE
:1002B000DF90CF90BF90AF909F908F907F906F9086
:1002C0005F900895D6E06F016D2F882D0E942E015A
:1002D000CD2F712CF601E70DF11D0081002311F0E7
:1002E000C7FF0DC08FEF99EF20E081509040204074
:1002F000E1F700C00000D15039F79394CDCF005200
:10030000069D80011124B12CA12C552453945C0E20
:10031000C7FD10C0F501E00FF11FE050FF4F8081D5
:100320000E9428058FEFA81AB80AC52D95E0A916D6
:10033000B10459F780E00E94280525E32A95F1F7DA
:100340000000CF5F7394C6CF883028F480930703F2
:1003500060E00C942E010895809107038F5F8770F1
:100360008093070360E00C942E010F931F93CF93AB
:10037000DF93C82F809108038B3720F5CA3011F125
:10038000C05285E0C89FE001112410E000E0F801B0
:10039000EC0FFD1FE050FF4F80810E9428058091E7
:1003A00008038F5F809308030F5F1F4F053011050F
:1003B00071F780E00E942805809108038F5F809389
:1003C000080304C00E94AC01CA30D1F6DF91CF917E
:1003D0001F910F910895CF93DF93EC0189918111C3
:1003E00003C0DF91CF9108950E94B501F7CF2F92FE
:1003F0003F924F925F926F927F928F929F92AF92B5
:10040000BF92CF92DF92EF92FF920F931F93CF9301
:10041000DF93CDB7DEB72A970FB6F894DEBF0FBED5
:10042000CDBF182F4A015B01722E8230D1F5022F09
:1004300010E0EE24E394F12C01501109C8F42A963F
:100440000FB6F894DEBF0FBECDBFDF91CF911F91E5
:100450000F91FF90EF90DF90CF90BF90AF909F9063
:100460008F907F906F905F904F903F902F90089566
:10047000A701002E02C0440F551F0A94E2F7052E73
:10048000000C660B770B482159216A217B2181E002
:10049000452B462B472B09F480E0805D0E94B50177
:1004A000CBCF81149104A104B10409F445C0FE012D
:1004B00031967F016F0100E0282E312C512C412C08
:1004C0007016D9F081149104A104B10499F0682C3C
:1004D000C501B401A20191010E947B0649015A01A4
:1004E000129F60181124F60160820F5FFFEFCF1A90
:1004F000DF0AE6CFFAE0F71580F40E0D1F2D111D6F
:100500000E151F0509F49BCFF80182918F018A30E7
:1005100038F0895C0E94B501F3CFF6011082E5CF77
:10052000805DF8CF80E30E94B5011F5F171509F4C5
:1005300086CF1A30B9F783CF10E0F8CF8F929F9211
:10054000AF92BF92CF92DF92EF92FF926B017C014C
:100550000E949D074B015C012FEFBC01A4018AE0C2
:100560000E94F7018EE20E94B501C501B4010E940C
:10057000CC079B01AC01C701B6010E94B70620E081
:1005800034E244E759E40E945A080E949D07AB01F7
:10059000BC012FEF8AE0FF90EF90DF90CF90BF90EB
:1005A000AF909F908F900C94F7014F925F926F9253
:1005B0007F92AF92BF92CF92DF92EF92FF920F9312
:1005C0001F93CF93DF93CDB7DEB7FE017196A19055
:1005D000B1908F014AE0E42EF501808181110FC0B6
:1005E000DF91CF911F910F91FF90EF90DF90CF900F
:1005F000BF90AF907F906F905F904F90089585323D
:1006000009F0DDC065018FEFC81AD80AF501218114
:1006100080ED820F8A3008F0D6C0F12C09C0FE9C14
:10062000200D112430EDF32EF20EF60121816A0126
:10063000A6014F5F5F4F80ED820F8A3080F328352F
:1006400009F4A4C02CF5243409F475C06CF42234E8
:1006500009F4A6C023340CF047C0253209F04DC080
:1006600085E20E94B50149C02335A1F1253509F481
:10067000C6C0263409F041C0580184E0A80EB11C60
:10068000F80160817181828193810E949E0234C051
:10069000263691F3BCF4233639F12436A9F12236FB
:1006A00061F55801F2E0AF0EB11CF80140815181B3
:1006B000FFEFFF1202C090E1F92E70E060E02F2DF5
:1006C00082E053C0253709F455C0283709F4B9C072
:1006D000233799F45801F2E0AF0EB11CF801808184
:1006E00091810E94EB0108C05801F2E0AF0EB11CED
:1006F000F80180810E94B50185015601FFEFAF1A14
:10070000BF0A6ACFFF24FA945801F2E0AF0EB11C81
:10071000F8010081118117FF06C01195019511099B
:100720008DE20E94B501A801110F660B770B2F2DEA
:100730001BC0FF24FA945801F4E0AF0EB11CF8017D
:10074000408051806280738077FE0BC0709460940B
:1007500050944094411C511C611C711C8DE20E94FC
:10076000B5012F2DB301A2018AE00E94F701C4CF89
:10077000FF24FA945801F2E0AF0EB11CF801408159
:10078000518170E060E0D3CFFF24FA945801F4E087
:10079000AF0EB11CF80140815181628173815AC052
:1007A000580184E0A80EB11CF8014081518162819A
:1007B0007381FFEFFF1283CF80E1F82E80CF0E947C
:1007C000B50165019ACF2835F9F21CF5243409F4F6
:1007D000B0CF6CF4223409F03DCF5801F4E0AF0EF5
:1007E000B11CF8014081518162817381E5CF2335CD
:1007F00009F470CFFF24FA94253509F03ACF580157
:10080000F4E0AF0EB11CF801408151816281738127
:100810008ECF263609F430CF64F4233609F464CF42
:10082000243609F46FCF223609F067CFFF24FA94FB
:1008300038CF253709F49CCFFF24FA94283709F0E4
:1008400047CF5801F2E0AF0EB11CF8014081518151
:1008500070E060E02F2D80E188CFEF92FF920F9340
:100860001F93CF93DF938530E8F56536D8F5C62F13
:10087000D82FD295DD0FD07E68E06D0F80E00E940A
:100880002E014C2F50E070E060E023E08AE00E94EF
:10089000F7018C2F82958F7007E0081BC695C770F3
:1008A00088E090E08C1B91091FEF01C0110F8A9521
:1008B000EAF7C1E0D45F6D2F8C2F0E942E01E12C4E
:1008C000C01728F0EE24EA940C1301C0E12E8CE04E
:1008D000F82E8E2D0E942805FA94F110FACFCF5FE2
:1008E000C83049F7DF91CF911F910F91FF90EF90A2
:1008F00008951F93CF93DF93853048F5653638F51B
:10090000162FC82FCC0FCF5F60E08C2F0E942E01D6
:10091000D0E0D11312C01D2F1436A1F469E68C2F3C
:100920000E942E014D2F50E070E060E023E08AE04D
:10093000DF91CF911F910C94F7018FEF0E94280552
:10094000DF5FE7CF80E00E9428051F5FE5CFDF91E2
:10095000CF911F9108950F931F93CF93DF938C0135
:1009600060E080E00E940C018CE30E94670080E45C
:100970000E942805E8011C5F89910E942805C01784
:10098000D107D1F7DF91CF911F910F91089587EA99
:100990000C94740086EA0C947400CF93C82F81E8FD
:1009A0000E9474008C2FCF910C947400E9EBF0E05E
:1009B00080818260808380818E7F808383E18093C9
:1009C000B8000895809306038091BC00846A8093E8
:1009D000BC008091BC0087FFFCCF8091B900887F6C
:1009E000883021F0803111F08EEF08958FEF089557
:1009F000880F90910603892B8093BB008091BC00E7
:100A00008F7D8093BC008091BC0080688093BC0087
:100A10008091BC0087FFFCCF80910603811107C045
:100A20008091B900887F883179F08EEF0895813008
:100A300069F4E091B900E87FE853E131B0F7F0E004
:100A4000E451FD4F808108958FEF089580E008956F
:100A50008093BB008091BC0080688093BC00809133
:100A6000BC0087FFFCCFE091B900E87FE852E1319C
:100A700028F4F0E0E552FD4F808108958EEF08954F
:100A800083E3815011F48CEF08959091BC0097FF9F
:100A9000F8CF8DEF0895811115C08091BC0080645E
:100AA0008093BC008091BC0080688093BC000E9451
:100AB00040058091B900887F803541F0883531F05C
:100AC0008EEF08958091BC008F7BEACF8091BB00B0
:100AD00008958091BC0080698093BC008091BC0027
:100AE00084FFFCCF0895CF93DF9300D000D000D0D7
:100AF000CDB7DEB78FEF8AB987B18F6087B914B8E9
:100B000084B1866284B9109280000E94BD0088E79B
:100B1000E82EF12C90E2392E25E0222E3CE0A32E87
:100B2000B12C17E64FE7442E07E05DE7952E6DE602
:100B3000862E76E6772EEFE46E2EFBE55F2E299A61
:100B400085E38A95F1F700002998109285001092AC
:100B5000840095E490938100B59BFECF8091860040
:100B60009091870036BA20928100B59BFECF6091AC
:100B700086007091870036BA681B790B072E000C2F
:100B8000880B990B0E94CE0724E43BE84CE85FE316
:100B90000E945A082CE53FE842E250E40E942407F4
:100BA0000E94960769837A838B839C83C980DA804D
:100BB000C601B5010E9467067E836D836A307105A8
:100BC0000CF0BDCFCE14DF040CF47601C7010E94F7
:100BD00053008D819E810697D4F42A982D9A88B16E
:100BE0008E6088B940988D819E818A309105A0F4ED
:100BF000FC01E350FA4F0C949D060A063A063C06A7
:100C00003E06400642064406460648064A062D9819
:100C10002A9AE5CF8FE38BB98FE19EE40197F1F734
:100C200000C0000088B18D6088B9419881E78BB918
:100C30008FE19EE40197F1F700C0000088B1876062
:100C400088B94398C601B5010E9467068C309105AA
:100C500028F5FC01E25DF94F0C949D064C06550603
:100C6000570659065B065D065F0661066306650664
:100C70006506650686E0CFCF5BB8CECF6BB8CCCF2C
:100C80007BB8CACF8BB8C8CF9BB8C6CF0BB9C4CF7F
:100C90004BB8C2CF1BB9C0CF8FE38BB98FE19EE4B5
:100CA0000197F1F700C000004ACF86E0F6CF5BB8AD
:100CB000F5CF6BB8F3CF7BB8F1CF8BB8EFCF9BB844
:100CC000EDCF0BB9EBCF4BB8E9CF1BB9E7CF97FB13
:100CD000072E16F4009407D077FD09D00E94A306D2
:100CE00007FC05D03EF4909581959F4F089570952F
:100CF00061957F4F0895A1E21A2EAA1BBB1BFD012F
:100D00000DC0AA1FBB1FEE1FFF1FA217B307E407EA
:100D1000F50720F0A21BB30BE40BF50B661F771F42
:100D2000881F991F1A9469F7609570958095909522
:100D30009B01AC01BD01CF010895EE0FFF1F05908F
:100D4000F491E02D0994AA1BBB1B51E107C0AA1F17
:100D5000BB1FA617B70710F0A61BB70B881F991F5C
:100D60005A95A9F780959095BC01CD0108955058EA
:100D7000BB27AA270E94CF060C9420080E941208C5
:100D800038F00E94190820F039F49F3F19F426F436
:100D90000C940F080EF4E095E7FB0C940908E92F7A
:100DA0000E94310858F3BA17620773078407950742
:100DB00020F079F4A6F50C9453080EF4E0950B2E70
:100DC000BA2FA02D0B01B90190010C01CA01A0019D
:100DD0001124FF27591B99F0593F50F4503E68F1F8
:100DE0001A16F040A22F232F342F4427585FF3CF39
:100DF000469537952795A795F0405395C9F77EF40A
:100E00001F16BA0B620B730B840BBAF09150A1F052
:100E1000FF0FBB1F661F771F881FC2F70EC0BA0FD8
:100E2000621F731F841F48F4879577956795B79560
:100E3000F7959E3F08F0B0CF9395880F08F099275B
:100E4000EE0F9795879508950E9438070C94200817
:100E50000E94190858F00E94120840F029F45F3FE0
:100E600029F00C94090851110C9454080C940F08A3
:100E70000E94310868F39923B1F3552391F3951B30
:100E8000550BBB27AA2762177307840738F09F5FAB
:100E90005F4F220F331F441FAA1FA9F335D00E2E18
:100EA0003AF0E0E832D091505040E695001CCAF785
:100EB0002BD0FE2F29D0660F771F881FBB1F261748
:100EC00037074807AB07B0E809F0BB0B802DBF011F
:100ED000FF2793585F4F3AF09E3F510578F00C94EE
:100EE00009080C9454085F3FE4F3983ED4F38695C8
:100EF00077956795B795F7959F5FC9F7880F911D0F
:100F00009695879597F90895E1E0660F771F881FFA
:100F1000BB1F621773078407BA0720F0621B730BAD
:100F2000840BBA0BEE1F88F7E09508950E949D0789
:100F30006894B1110C94540808950E94390888F0FF
:100F40009F5798F0B92F9927B751B0F0E1F0660F8D
:100F5000771F881F991F1AF0BA95C9F714C0B130CE
:100F600091F00E945308B1E008950C945308672F44
:100F7000782F8827B85F39F0B93FCCF386957795FD
:100F80006795B395D9F73EF49095809570956195E6
:100F90007F4F8F4F9F4F0895E89409C097FB3EF411
:100FA00090958095709561957F4F8F4F9F4F9923B6
:100FB000A9F0F92F96E9BB279395F6958795779534
:100FC0006795B795F111F8CFFAF4BB0F11F460FFF4
:100FD0001BC06F5F7F4F8F4F9F4F16C0882311F04C
:100FE00096E911C0772321F09EE8872F762F05C060
:100FF000662371F096E8862F70E060E02AF09A95FB
:10100000660F771F881FDAF7880F9695879597F9EF
:10101000089597F99F6780E870E060E008959FEF7A
:1010200080EC089500240A9416161706180609067F
:10103000089500240A94121613061406050608954E
:10104000092E0394000C11F4882352F0BB0F40F4D6
:10105000BF2B11F460FF04C06F5F7F4F8F4F9F4F16
:10106000089557FD9058440F551F59F05F3F71F098
:101070004795880F97FB991F61F09F3F79F08795FF
:101080000895121613061406551FF2CF4695F1DF88
:1010900008C0161617061806991FF1CF8695710518
:1010A000610508940895E894BB2766277727CB014C
:1010B00097F908950E946D080C9420080E94120868
:1010C00038F00E94190820F0952311F00C940908BB
:1010D0000C940F0811240C9454080E94310870F3EA
:1010E000959FC1F3950F50E0551F629FF001729FCD
:1010F000BB27F00DB11D639FAA27F00DB11DAA1FDC
:10110000649F6627B00DA11D661F829F2227B00D28
:10111000A11D621F739FB00DA11D621F839FA00DB3
:10112000611D221F749F3327A00D611D231F849F03
:10113000600D211D822F762F6A2F11249F5750405A
:101140009AF0F1F088234AF0EE0FFF1FBB1F661FD5
:10115000771F881F91505040A9F79E3F510580F09E
:101160000C9409080C9454085F3FE4F3983ED4F3C0
:10117000869577956795B795F795E7959F5FC1F742
:10118000FE2B880F911D9695879597F90895F894F1
:02119000FFCF8F
:10119200000000000000002F0000000700070014FC
:1011A2007F147F14242A7F2A12231308646236498B
:1011B2005522500005030000001C2241000041227C
:1011C2001C0014083E081408083E08080000A0602D
:1011D20000080808080800606000002010080402E7
:1011E2003E5149453E00427F4000426151494621FD
:1011F20041454B311814127F1027454545393C4A69
:1012020049493001710905033649494936064949B8
:10121200291E00363600000056360000081422410E
:101222000014141414140041221408020151090676
:10123200324959513E7C1211127C7F494949363E4E
:10124200414141227F4141221C7F494949417F0955
:101252000909013E4149497A7F0808087F00417F18
:1012620041002040413F017F081422417F4040401D
:10127200407F020C027F7F0408107F3E4141413EC5
:101282007F090909063E4151215E7F091929464617
:101292004949493101017F01013F4040403F1F2040
:1012A20040201F3F4038403F631408146307087012
:1012B20008076151494543007F41410055AA55AA9B
:1012C200550041417F000402010204404040404079
:1012D200000305000020545454787F4844443838B1
:1012E20044444420384444487F3854545418087EB7
:1012F20009010218A4A4A47C7F0804047800447D98
:1013020040004080847D007F1028440000417F40DF
:10131200007C041804787C08040478384444443877
:10132200FC2424241818242418FC7C0804040848EB
:1013320054545420043F4440203C4040207C1C2014
:1013420040201C3C4030403C44281028441CA0A0B3
:10135200A07C4464544C4400107C82000000FF00D6
:101362000000827C10000006090906FFFEFEFEFE58
:10137200FEFEFEFEFEFEFEFEFEFEFEFEFEFEFEFE8B
:10138200FEFEFEFEFFFEFEFEFEFEFEFEFE20496E9D
:0613920063686573200092
:00000001FF
